:020000040800F2
:10000000E01C00200D2E0008312E0008352E0008BF
:10001000392E00083D2E0008412E00080000000087
:10002000000000000000000000000000452E000855
:10003000492E0008000000004D2E0008512E000837
:10004000552E0008592E00085D2E0008612E00086C
:10005000652E0008692E00086D2E0008712E00081C
:10006000752E0008792E00087D2E0008812E0008CC
:10007000852E0008892E00088D2E0008912E00087C
:10008000952E0008992E00089D2E0008152D0008B9
:10009000192D0008A92E0008AD2E0008B12E000869
:1000A000B52E0008B92E0008BD2E00081D2D000831
:1000B000C52E0008C92E0008CD2E0008D12E00083C
:1000C000D52E0008D92E0008DD2E0008E12E0008EC
:1000D000E52E0008E92E0008ED2E0008F12E00089C
:0C00E000F52E0008F92E0008FD2E000887
:10010000153CA54700000021772A000810B5DFF84C
:10011000204700B92EE0DFF81C0700680068804720
:1001200020680A3010BD80B5DFF80407DFF8082723
:1001300000685278C1788A420DD38278002A04BFC1
:100140008288002A07D18172DFF8E80600684068DB
:100150008047002002BD022002BD10B5DFF8D04666
:1001600000B907E0DFF8CC060068806880472068A7
:100170000C3010BD206801210182002010BD10B597
:10018000DFF8AC46DFF8B42620681268C178407901
:100190009269904721688A7A9AB1002804BF087949
:1001A00000280ED1887860B9DFF888060068C0683A
:1001B000804720684179C1722068C17801730020AE
:1001C00010BD022010BD10B5DFF86416096818B91B
:1001D00002200882002010BD0020DFF86446208045
:1001E0007F220878104215D1487A810603D5002174
:1001F00041F0020121704006217854BF01F0FE0059
:1002000041F001002070DFF82C060068006980478B
:10021000204610BD00F07F02012AF9D000F07F00D7
:100220000228D7D14879DFF81C2600F00F0100061C
:1002300052F8210007D500F030001028E3D100204B
:1002400040F00100DEE700F44050B0F5805FDAD105
:10025000002040F00100D5E770B5DFF8D405006854
:10026000017811F07F0104D1417A01F0DF01417280
:1002700051E0022901BF41880029017900294CD1B0
:100280004179DFF8C04521F080050A0654F82520A1
:100290004CBF02F0300202F44052DFF89C351B786C
:1002A0009D423AD2002A1CBF807A002835D0080629
:1002B00054F825000BD500F03000102826D1284630
:1002C00000F045FB3021284600F0F6FA1EE000F46D
:1002D0004050B0F5805F19D14BF68F7665B9DFF8E5
:1002E000680590F82C10002000F05EFB206830407C
:1002F00080F44050206009E0284600F018FB54F8D4
:100300002500304080F4405044F82500DFF82405F3
:10031000006840698047002070BD022070BD38B57C
:10032000DFF80C05DFF81C150268537923F0800014
:100330001C0651F820404CBF04F0300404F4405433
:10034000DFF8F4542D78A84206D2558825B9002C40
:100350001CBF927A002A01D1022032BD1A0651F840
:10036000202005D548F6BF731A4082F0100204E041
:100370004BF68F731A4082F4805241F82020DFF848
:10038000B404006880698047002032BDDFF8A024F3
:100390001268538A20B98888C01A108200207047DA
:1003A0000868181870472DE9F041DFF88444206888
:1003B00000F110052988002904BF007A042802D121
:1003C0000726102025E0AF888F4205D30426B942C6
:1003D00088BF39460F4600E00226A968384688479C
:1003E0008046002000F0D1FA01463A46404600F02F
:1003F0002AFB3946002000F0D0FA2888DFF84C1498
:10040000C01B28804FF440526888381868800A80E2
:100410003020DFF83C14088020680672BDE8F081C7
:1004200038B5DFF80C442068457801787F22114206
:1004300041D1092D02D1FFF776FE50E0052D1BD1E9
:10044000C178802959DA8178002901BF8188002983
:10045000807A002851D1DFF8FC13DFF8FC2309680B
:1004600089B2002342F811300620DFF8E41330226D
:100470000A802168087231BD032D11D1C17801298C
:1004800004BF818800292CD1417A8A0629D541F000
:1004900020014172DFF89C030068C0698047DAE7F9
:1004A000012D04BFC17801291BD18188C9B9407AC7
:1004B00080060DD415E001F07F00012804D10B2D3A
:1004C0000FD1FFF75CFE0AE002280AD1012D02D10C
:1004D000FFF7C2FE03E0032D03D1FFF720FF002842
:1004E000B9D0DFF8581309684969284688470328B6
:1004F00008BF0920BDD00028ADD00820B9E710B54D
:10050000CB4C20684178062916D101787F22114210
:1005100031D18078012803D1C8480068C16975E0ED
:10052000022803D1C5480068016A6FE0032822D180
:10053000C2480068416A69E0002944D14188002925
:1005400004BFC188022916D10179A1B901787F229F
:10055000114204BF8288002A33D001F07F02012AB1
:1005600015D1B64A4079126892690021904710B9B6
:100570002068807A28BBB1492068096840780969F9
:10058000884703284BD120680921017210BD01F072
:100590007F010229EFD14079AA4B00F00F0100F052
:1005A0007002000653F821004CBF00F0300000F448
:1005B0004050A14B1B789942DDD2002ADBD10028A4
:1005C000D9D0A64922E0082905D100787F21084228
:1005D000D1D1A3491AE00A2902BF017801F07F01B5
:1005E0000129C8D1817A0029C5D04188002901BFDD
:1005F00001790029C1880129BDD1904A407912684A
:100600009269002190470028B5D196490800B2D0E0
:1006100020680022428281610020884700202168F2
:100620000A8A4FF6FF739A4208BF092004D00228B5
:1006300018BF002A02D10820087210BD08780006F1
:100640000BD5C888904238BF08827C48006890F873
:100650002C008882BDE81040A5E6032008724FF404
:1006600040517A48018010BD38B57A487E4900680B
:100670006F4C80B231F8100021680A7A400000F116
:10068000804000F5C040092A14D010F8012B0A70F0
:10069000216810F8012B4A70851C35F8040B00F016
:1006A000CDF921684880288800F0C8F92168888041
:1006B000A888C8800121206801722068C08810B90C
:1006C000FFF7AEFE01E0FFF71AFFBDE831407DE025
:1006D00010B5574C2068017A022918BF042904D1AB
:1006E000FFF761FE2068007A14E0062911D14178F5
:1006F000052902BF01787F22114206D1C07800F09F
:100700007FF84C480068006A80474C480068806861
:100710008047082021680872BDE8104056E0F8B50F
:10072000434C2068017A032918BF052943D100F101
:100730001005A9682E88080018BF002E14D0A888BC
:10074000864288BF06463046884707462888801B71
:100750002880688830186880002000F017F901466A
:100760003246384600F085F9288850B137484FF4B2
:10077000405101800020002100F00FF93448302161
:1007800001802888AA882168904228BF032001D2CE
:1007900010B1052008720BE00620087200222D48D7
:1007A0002D49006880B241F810203021284801808E
:1007B0002068007A06E0072903D120480068C06855
:1007C0008047082021680872BDE8F14080B51E48C6
:1007D00090F82C10002000F0E7F815480068017A26
:1007E000082906D119494FF480520A80102218496D
:1007F0000A80007A092801D1012002BD002002BD33
:10080000F0B40D490F4B0978002259B11C4648F647
:100810008F7526682E40D7B23E43521C44F8046BB5
:100820008A42F6D340F08000D864F0BC70470000E4
:10083000841400208C140020480300208814002019
:10084000C4140020005C004034020020C8140020C2
:10085000CA140020505C004004600040C70100083A
:100860000D0100085B01000808600040704710B4EB
:1008700050F8041B81B102681218001D50F8043BA7
:10088000DC0744BFA9F10104E31852F8044B43F814
:10089000044B091FF9D1EBE710BC70474FF6F87114
:1008A0000840DFF8801108607047DFF87C2152F8BB
:1008B000203048F68F1C5AE0DFF86C2152F82030C7
:1008C00048F6BF7C0CEA03035FEAC16C48BF83F0C3
:1008D0001003890648BF83F0200310E0DFF84821A9
:1008E00052F820304BF68F7C0CEA03035FEAC14CD0
:1008F00048BF83F48053890448BF83F4005342F80F
:1009000020307047DFF8201151F820204BF68F730C
:100910001A4082F4405207E0DFF80C1151F8202011
:1009200048F68F63FFE71A4041F820207047DFF850
:10093000F81051F82020520408D551F8202048F62C
:100940008F731A4042F4804241F820207047DFF84C
:10095000D81051F82020520608D551F8202048F62A
:100960008F731A4042F0400241F8202070470CEA91
:100970000303194342F82010704738E0294A1268EF
:1009800092B202EBC000294A37E03BE025490968F2
:1009900089B201EBC00025493AE0224A126892B2BE
:1009A00002EBC000224A2AE01E4A126892B202EB11
:1009B000C000204A02EB40003F2909DB4A091F23FF
:1009C000194208BF521E1204910941F4004105E08A
:1009D0004A08C90748BF521C1204910901607047B8
:1009E0001049096889B201EBC000124914E00D4AB0
:1009F000126892B202EBC0000F4A4908490042F85F
:100A0000101070470749096889B201EBC0000A4914
:100A100051F8100080B2704751F810008005800D29
:100A200070470000505C0040005C004008600040DF
:100A3000046000400C600040006000400106090CAA
:100A400041EA10207047490001F18041521C01F534
:100A5000C04152100AD1704710F8013B10F801CB89
:100A600043EA0C2321F8023B891C521E002AF3D1D1
:100A70007047490001F18041521C01F5C0415210FC
:100A800005D1704751F8043B20F8023B521E002A62
:100A9000F8D17047F0B5046842688368C068DFF831
:100AA0000C56DFF80C760C604A608B60C8600A2632
:100AB000C0F3072EC0F3074C1EF807E01CF807C070
:100AC0004FEA0E4E4EEA0C6C5FFA80FE1EF807E00D
:100AD0004CEA0E2C4FEA106E1EF807E04EEA0C0CA2
:100AE00055F804EB8EEA0C0C8CEA0404624041F8E1
:100AF000104F53404A6058408B60C860761ED7D173
:100B0000F0BDC7E72DE9F04F036852F8A04F84EA23
:100B1000030E4368546884EA030883689468C068D5
:100B200084EA0309D368DFF88C4583EA000CA2F15C
:100B3000200009221B23CCF307464FEA1E65365DD1
:100B40002D5D360446EA0565C9F30726CEF307474F
:100B5000365D3F5D45EA06255FFA88F63F04365D5F
:100B60003543066975404FEA1866C8F3074A365D93
:100B70001AF804A047EA0666CCF307274FEA0A4AA8
:100B80003F5D46EA07265FFA89F7C8F307283F5D0D
:100B900018F804803E4347697E404FEA1967C9F35D
:100BA00007493F5D19F804904AEA0767CEF3072A20
:100BB0005FFA8EFE1AF804A01EF804E047EA0A273E
:100BC0005FFA8CFA4FEA1C6C4FEA09491CF804C022
:100BD0001AF804A049EA0C6C4CEA082C4EEA0C0CFA
:100BE000D0F81CE04FEAD5188EEA0C0C08F001385A
:100BF00005F07F3E03FB08F888EA4E0E4AEA070735
:100C00004FEADE19D0F818A009F001390EF07F384C
:100C100003FB09F98AEA070789EA48084FEAD81A64
:100C20000AF0013A08F07F3903FB0AFA8AEA490917
:100C300089EA050585EA0E0B88EA0E0E89EA0E0E92
:100C400085EA080A8EEA3B6E8EEA3A4E4FEAD618DB
:100C50008EEA352E08F0013806F07F3503FB08F8E0
:100C600088EA45054FEAD51909F0013905F07F38C2
:100C700003FB09F989EA48084FEAD81A0AF0013A51
:100C800008F07F3903FB0AFA8AEA490989EA06066D
:100C900086EA050B88EA050589EA050586EA080A59
:100CA00085EA3B6585EA3A4585EA3628FE0906F07D
:100CB000013607F07F355E4386EA45054FEAD519D0
:100CC00009F0013905F07F3603FB09F989EA460688
:100CD0004FEAD61A0AF0013A06F07F3903FB0AFA06
:100CE0008AEA490989EA070787EA050B754089EA14
:100CF000050587EA060A85EA3B6585EA3A454FEA33
:100D0000DC1685EA372906F001360CF07F355E43A4
:100D100086EA4505EF0907F0013705F07F365F43A6
:100D200087EA46064FEAD61A0AF0013A06F07F37FC
:100D300003FB0AFA8AEA470787EA0C0C8CEA050BE0
:100D400075407D408CEA060A85EA3B6585EA3A45AE
:100D5000103885EA3C2C521E7FF4EDAECEF30743EB
:100D60004FEA18621B5D125D1B0443EA0262CCF37A
:100D70000723C8F307451B5D2D5D42EA03225FFA96
:100D800089F32D041B5D1A4343695A404FEA1963E6
:100D9000C9F307461B5D365D45EA0363CEF30725BD
:100DA00036042D5D43EA05235FFA8CF5CCF3074743
:100DB0002D5D3F5D2B4385696B404FEA1C653F0409
:100DC0002D5D46EA0565C8F30726365D45EA06252A
:100DD0005FFA8EF6365D3543C669006975404FEAA5
:100DE0001E66365D47EA0666C9F307273F5D46EA99
:100DF00007265FFA88F73C5D3443604008604A602C
:100E00008B60CD60BDE8F08F2DE9F0470368146872
:100E100055689668A64F634044686C408568C06812
:100E20007540D66886EA000902F1100009221B26E7
:100E3000C4F3074E4FEA136C1EF807E01CF807C016
:100E40004FEA0E4E4EEA0C6CC5F3072EC5F3074869
:100E50001EF807E018F807804CEA0E2C5FFA89FEAE
:100E60004FEA08481EF807E04EEA0C0C4FEA146EF1
:100E7000C9F3074A1EF807E01AF807A048EA0E6E01
:100E8000C9F307284FEA0A4A18F807804EEA082EE5
:100E90005FFA83F84FEA196918F8078019F8079084
:100EA00048EA0E0E4FEA156818F807804AEA086803
:100EB000C3F3072AC3F307431AF807A0DB5D48EA28
:100EC0000A285FFA84FAC4F307241B04E45D1AF8C5
:100ED00007A043EA096343EA0423ECB24AEA08089C
:100EE000E45D44EA03094FEADC1303F00133734382
:100EF0000CF07F34CCF3066A83EA44058CEA4A6A34
:100F000083EA0A0A8CEA440463401B0243EA1A6338
:100F10006B4083EA3C4350F8044B83EA3C23634034
:100F20004FEADE1404F0013474430EF07F35CEF343
:100F3000066A84EA450C8EEA4A6A84EA0A0A8EEA5C
:100F400045056C40240244EA1A6484EA0C0484EAED
:100F50003E4450F8045B84EA3E246C404FEAD815C6
:100F600005F00135754308F07F3CC8F3066A85EA51
:100F70004C0E88EA4A6A85EA0A0A88EA4C0C85EA35
:100F80000C052D0245EA1A6585EA0E0585EA384505
:100F900050F804CB85EA38258CEA05054FEAD91CC0
:100FA0000CF0013C06FB0CFC09F07F3EC9F3066A1D
:100FB0008CEA4E0889EA4A6A8CEA0A0A89EA4E0EE5
:100FC0008CEA0E0C4FEA0C2C4CEA1A6C8CEA080CDA
:100FD0008CEA394C50F804EB8CEA392C8EEA0C0977
:100FE000521E7FF425AFC5F30746220EF65DD25D93
:100FF000360446EA0262C9F30726C9F3074CF65DD8
:101000001CF807C042EA0622DEB24FEA0C4CF65D3D
:101010003243466872402E0EC3F3074EF65D1EF84B
:1010200007E04CEA0666C3F3072C4FEA0E4E1CF8A5
:1010300007C046EA0C265FFA84FC1B0E1CF807C0AA
:10104000DB5D4CEA0606D0F808C08CEA06064FEADB
:10105000196C1CF807C04EEA0C6CC4F3072EC4F3DD
:101060000744E45D1EF807E0240444EA03634CEA05
:101070000E2CC5F307245FFA85FEE45D1EF807E039
:1010800043EA04234EEA0C0C5FFA89F4D0F80CE032
:10109000E45D00682343584008604A608EEA0C0C07
:1010A0008E60C1F80CC0BDE8F0870000640200202B
:1010B00000000020000100202DE9F04F93B0804691
:1010C00002AE002014461D460291B0610DF1300AB7
:1010D0000AE014F8011B0298C0470290002800F0B3
:1010E000B481B069401CB061207808B9B069AEE144
:1010F0002528EED10020F0603061706101E040F001
:10110000010014F8011F2029F9D023290DD02B2923
:1011100004D02D2906D030290AD00CE040F002007E
:1011200080B2EEE740F00400FAE740F00800F7E78D
:1011300040F01000F4E72A290DD129680A1D2A6021
:1011400009683162002904D5494240F00400316247
:1011500080B2641C13E0002131620BE0316A6FF051
:101160000043994205D001EB810302EB4301303982
:101170003162641C2278A2F130010A29EED3217871
:101180002E2903D04FF0FF31F1611EE014F8011F4A
:101190002A2906D129680A1D2A60641C0968F161A0
:1011A00013E00021F1610BE0F1696FF00043994217
:1011B00005D001EB810302EB43013039F161641C7E
:1011C0002278A2F130010A29EED3B0840FF28030E8
:1011D000217800F0C1F908B114F8010B8DF82E0048
:1011E0009DF82E00682804BF2078682803D162206B
:1011F0008DF82E00641C0CA8B0602278252A13D02C
:10120000582A34D0632A00F0A580642A18BF692ABE
:1012100068D06F2A2BD0702A20D0732A09D0752A63
:1012200018BF782A23D09FE0F068411CF160252187
:1012300097E02868011D29600068F2697060002A43
:1012400002D500F0A5F907E0002100F0C1F900285F
:101250001ABF7168401AF069306191E02868011D79
:1012600029607821006801900CA870606EE09DF8FC
:101270002E306C2B08BF286811D0712B08BF28684E
:1012800002D028686A2B0AD1C01D20F00700286010
:10129000014601F108002860D1E9000102E0011DCA
:1012A000296000680190682B02D101A8008803E042
:1012B000622B02D101A80078019096F82400000763
:1012C0003FD5019800283CD042F02000782838D142
:1012D000F068302100F80A10401C411CF16000F851
:1012E0000A202EE09DF82E00622802D0682806D041
:1012F0000BE02868011D296090F9000009E02868CA
:10130000011D2960B0F9000003E02868011D296073
:1013100000680190002804D5F068411CF1602D217F
:101320000DE0B08C810704D5F068411CF1602B21E1
:1013300005E0C00705D5F068411CF160202100F8E8
:101340000A10F0680CA940187060114601A800F05E
:1013500081F815E0F068411CF16029680A1D2A60D7
:10136000096800F80A100BE0F068411CF1602521C3
:1013700000F80A1022B1F068411CF16000F80A2060
:10138000306AF168401A7169401A3169A0EB0109AD
:1013900096F82400641C40070FD420208DF800002C
:1013A000002708E0012300AA01A9404600F0B9F88F
:1013B00000284AD17F1C4F45F4DBF7680DF1300B54
:1013C0000AE01BF8011B0298C047029000283CD09D
:1013D000B069401CB0617F1E002FF2D130208DF823
:1013E00000004FF0000B776908E0012300AA01A973
:1013F000404600F096F840BB0BF1010BBB45F4DB17
:101400003769D6F804B009E01BF8011B0298C04701
:101410000290D0B1B069401CB0617F1E002FF3D1A3
:1014200096F8240040077FF55FAE20208DF800007D
:1014300000E07F1C4F45BFF657AE012300AA01A96B
:10144000404600F06EF80028F3D04FF0FF3013B0A4
:10145000BDE8F08FF0B4C2686F2908BF082405D03A
:1014600041F02003782B14BF0A24102406681823A7
:101470003746642918BF692902D1002E48BF7F4230
:101480005FB9056A4DB9082C27D190F828100907D3
:1014900023D530211723D1751FE0B7FBF4F604FBE9
:1014A000167730375D1EFFB22B463A2FA4BFA1F14D
:1014B000510C6744AF54370003D085689E18B5427D
:1014C000EBD3082C09D190F82810090705D5995CB1
:1014D000302902D05B1E30219954C3F118014161BB
:1014E0009A188260026A914208DA511A81614FF6B5
:1014F000EF72018D11400185F0BC7047002A0ED5B6
:1015000090F8282002F01402102A08D1426A0369D8
:10151000D21A8369D21A531A012BA8BF8361F0BC77
:101520007047F8B504460D4616461F46002004E0F5
:10153000E869401CE8617F1E002047B116F8011BD6
:101540006868A04768600028F2D14FF0FF30F2BD14
:10155000686C747A4C0000000278C9B28A421AB1F1
:101560001CBF10F8012FF9E718BF0020704750F892
:10157000041B61B150F8042BD30744BFA9F1010348
:101580009A18002342F8043B091FFAD1EFE770478D
:1015900000F10103810704D010F8011B89B1810714
:1015A000FAD10268B2F10131914311F0803F04BFDA
:1015B00050F8042FF6E710F8011B11B110F8011BC9
:1015C000FBE7C01A70470268531C03601170704734
:1015D000C9B2830706D0521E22D310F8013B9942AC
:1015E000F7D11FE0083A13D302F1040241EA0121C6
:1015F00041EA014150F8043B121F21BF4B40A3F1C7
:10160000013C2CEA030C1CF0803FF3D0C9B2001F50
:10161000083210F8013B521E28BF91EA030FF8D898
:1016200018BF0120401E704780B500F0C1F9CA49BB
:10163000087001BD2DE9F84304460D46A04615F09B
:10164000030F0BD04FF6FC702840001D854205D2D9
:10165000411BC248FF22281800F06EFA0026C04F36
:101660000DB97E8213E0DFF8F49259F8041B20468E
:1016700000F0BDF9241D361DAE42F6D3002078825D
:10168000788A18F8011B081878826D1EF8D1788ABC
:10169000398A88420CBF00200320F872BDE8F1832C
:1016A000AF48022181720021C172AE4801707047BB
:1016B00030B5AD484178491E8BB0092900F243810D
:1016C000DFE811F037004101A700F80013012B01FA
:1016D0001A000A001F0028001422A44905A800F0DF
:1016E0006FFAA34800788DF818001422A02105A8ED
:1016F000FFF7A9F9142104E19948072101730BB000
:1017000030BD81784129A8BF4021924800F013FBE9
:101710000BB030BD01A8002100220B460C461EC0B4
:101720004FF004500190102101A800F004FB0BB011
:1017300030BD8B4CA17A022918BF05295FD182796F
:10174000002A04BFC17900290BD101206062062064
:10175000A072E07A20700020607060800620207106
:10176000F4E084490B78A3B9C378857845EA03236C
:101770002362C37942EA0322A2614279007940EAF6
:1017800002202082A069E0610020E0810120087031
:1017900026E0206A784D98B9002100F029FB2878CE
:1017A000E97820730904287941EA0060A97840EAC1
:1017B00001206978084360610320A0722071C5E0B0
:1017C000E089A2690019412A11D340222946283014
:1017D00000F0E6F9E0894030E081A0694038A0617E
:1017E0004FF440510220FFF779F80BB030BD294685
:1017F000283000F0D5F90320A0722071A6E00A205D
:10180000A0720F2020700020607060800A2020717C
:101810009CE0534CA07A032814D0042802D0062858
:1018200041D03AE0607BC1073DD50521A17221710D
:1018300000F0FE000021617061806073E17A217028
:1018400000210DE0607BC1070ED500F0FE000521F0
:101850006073A17221710021E07A61706180207053
:10186000012000F0C5FA1EE00421A1722171217B44
:10187000412916BF512950210021009140F002005A
:101880009DF80010617060739DF80110A1709DF8C3
:101890000210E170E17A217005E020710020607093
:1018A0006080E07A20700622A0212046FFF7CBF866
:1018B000062126E02A4CA07A0A2808D10220A0722C
:1018C0000020206002202071002060710BE00A20BF
:1018D000A0720E2020700020607060800A202071AD
:1018E000002060710E20E07230E01D4CA07A607222
:1018F0000222E07A2072A02104F10800FFF7A3F889
:1019000002210120FFF749F830210120FEF7D4FF22
:101910001848032101700BB030BD114CA07A801E15
:10192000012884BFC01E012801D9001F0ED102204A
:10193000A0720020206002202071002060712062CF
:10194000A061E07202E0022000F01BFA00F00EFA43
:101950000BB030BD303C0008D6140020740B0020C2
:101960004C0300209D140020A0140020E0F7FF1F6E
:10197000203C00089C14002028140020DFF8981157
:101980000A6802F03802FFE70A600A68104308603C
:101990007047DFF884110A6822F01002F4E7DFF8DC
:1019A0007C01DFF87C110160DFF87811016070477D
:1019B00070B5054640F6FF76304600F078F804280A
:1019C00014D1DFF86441206840F0020020606560B7
:1019D000206840F040002060304600F068F80128A0
:1019E00004D0216841F6FD721140216070BD70B5D0
:1019F0000E46054616F1010F01D1042070BD0F20DF
:101A000000F055F8042816D1474C206840F001003A
:101A100020602E800F2000F04AF8042804D1300CFA
:101A200068800F2000F043F8012804D0216841F6B7
:101A3000FE721140216070BD70B5044640F6FF751E
:101A4000284600F034F8042830D1384E344830604D
:101A500034483060B06840F02000B060B06840F0BA
:101A60004000B060284600F022F8042817D1B06882
:101A700041F6DF710840B060002CB06840F0100003
:101A8000B0602B4814BF0021A5210180284600F03A
:101A90000EF801280AD0B16841F6EF7204E001287F
:101AA00004D0B16841F6DF721140B16070BD18B466
:101AB000204A13680421DB0748BF012108D41368BA
:101AC0005B0748BF022103D41368DB0648BF03212C
:101AD000FF2304E01468E40648BF0321401E0129E7
:101AE00015D1A8B100210091009302E00099491E90
:101AF000009100990029F9D104211468E40748BF36
:101B00000121EBD414686407E4D50221E6E700B9AB
:101B10000521084612BC7047002002400420024004
:101B200023016745AB89EFCD102002400820024019
:101B300000F8FF1F0C20024062F30F2262F31F42E5
:101B4000401810F0030308D0C91A1FD3DB0748BFA1
:101B500000F8012D28BF20F8022D130030B41446E0
:101B60001546103928BF20E93C00FAD8490728BF9C
:101B700020E90C0048BF40F8042D890028BF20F858
:101B8000022D48BF00F8012D30BC7047C91818BF9E
:101B900000F8012DCB0728BF00F8012D7047000089
:101BA00062B38B0708D0521E11F8013B00F8013BCD
:101BB00000F024808B07F6D1830740F0208000BF1F
:101BC000103A07D330B4B1E83810103AA0E8381012
:101BD000F9D230BC530724BFB1E80810A0E80810C0
:101BE00044BF51F8043B40F8043BD20724BF31F80E
:101BF000022B20F8022B44BF0B7803707047083A81
:101C000007D3B1E80810083A40F8043B40F804CB89
:101C1000F7D25307E4E7000000B550480178407858
:101C200083B08DF8001000A948704D48027A8DF8F5
:101C30000220427ACA700622817AC07A8DF8041096
:101C40008DF80500A02100A8FEF7FDFE0621012069
:101C5000FEF7A3FE30210120FEF72EFE41480321AE
:101C6000017003B000BD10B53E4C607882B000F545
:101C70000070ADF800000222A02100A8FEF7E3FEEC
:101C80000320207002210120FEF787FE3021012071
:101C9000FEF712FE13BD33480178891E03D0491E9A
:101CA000012905D970470079F32802D1FFF700BD5B
:101CB00060E0704710B50220FEF792FE044622460F
:101CC000E0212948FEF7D5FE2648017811B1012907
:101CD00004D007E02046BDE8104005E00079F32875
:101CE00001D119E01CE010BD10B51E4C20B11E49F9
:101CF0000246201DFFF754FF2079F12804D0F32875
:101D000005D0F52804D006E0BDE8104084E703E0E4
:101D1000BDE81040A7E703E0BDE81040FFF7C8BCEE
:101D200010210120FEF7C8FDBDE810404FF480519E
:101D30000220FEF7D3BD10B50C462246A021FEF7C7
:101D400082FE21460120FEF728FE30210120FEF709
:101D5000B3FD04480321017010BD0000FE3F0008E0
:101D6000A82C00089C14002028140020004801E042
:101D70009C1400200021017002204FF44051FEF716
:101D8000ADBD80B518B1022807D00AD301BDBDE8AA
:101D9000044010210120FEF78FBD10210120FEF725
:101DA0008BFDBDE80440C1E700B585B000F096F8B2
:101DB000454802210186018801F09F0101800188C8
:101DC00001806020ADF800000220ADF8080001207D
:101DD000ADF8020000A800F08EF8012000F0C6F86F
:101DE000012000F0C0F8012000F0AAF805B000BD05
:101DF00070B5364E0446307882B00D46844218D015
:101E00000021042000F0A0F8002000F095F8062C36
:101E100040D8DFE804F004121427181A2F002C48C9
:101E2000016821F0F0010091009941F0400101604A
:101E300030E07068A842EAD173BD502000E0402035
:101E400000F08CF826E0502000E0402000F086F8FA
:101E50002048858248F6A04101820420012100F03B
:101E600073F817E01B4864218182818A4908018444
:101E7000642105E017488582690801844FF6FF71E7
:101E800001820188C9B20091009941F4D0410091CA
:101E900000990180012110480160307800281CBFA2
:101EA0000428052809D144B10948016821F0F0014E
:101EB0000091009941F0B00101603470756001201B
:101EC000BDE8764000F038B8002C0140B014002086
:101ED00004080140182C01408082254280B5012170
:101EE0004FF4006000F0EDF8BDE8044000214FF42D
:101EF000006000F0E6B8DFF88C10DFF88C300A885C
:101F00004FF0000CC3F800C0D2B2B0F800C042EAF3
:101F10000C220A8042881A6082889A6002895A607C
:101F20004289DA608389DFF86420FFE71360C389A0
:101F30005360C08808847047DFF854100860704709
:101F4000DFF8501008607047DFF84C200129118835
:101F50000CBF084321EA00001080704709490A8835
:101F600040F67F7308E00D49086070470C4908602F
:101F700070470A884FF2FF331A4042EA0020088077
:101F800070470000182C014010842542A88025428B
:101F900000802542BC8825420C2C01401C80254233
:101FA0002C8325425848594A0021C16001611421FF
:101FB000416100218161C161016841F0010101605D
:101FC000416811404160524A016811400160016856
:101FD00021F480210160416821F4FE01416000216B
:101FE0008160704748490A6822F480320A60B0F57F
:101FF000803F0A6822F480220A6003D0B0F5802F67
:1020000004D07047086840F4803002E0086840F46B
:10201000A020086070473F483B490A68520C02F014
:10202000010202704268521C4260027812B9426892
:10203000FF2AF2D10868800301D5012070470020F3
:102040007047354A136823F47C1318430843106023
:1020500070473249086070472F490A68920840EA81
:102060008200086070472C48006800F00C00704740
:1020700029490A6822F0F00203E027490A6822F49D
:10208000E06210430860704723490A6822F46052F6
:1020900042EAC00008607047214908607047214A41
:1020A0000029116814BF084321EA0000106070473E
:1020B0001D4A0029116814BF084321EA000010607E
:1020C00070471A4A0029116814BF084321EA00002A
:1020D0001060704716490870704741090A4A012983
:1020E00008BF116803D002290CBF116A516A00F0C1
:1020F0001F0021FA00F000F0010070470D48016850
:1021000041F0807101607047001002400000FFF84C
:10211000FFFFF6FEB81400200410024060004242A7
:10212000D8004242181002401C1002400C1002401D
:10213000071002402410024000B5924881684368AD
:10214000026889B001A800910FF2742100F040F9F3
:102150008D4901A8062210F8013B01F8023B521EEE
:1021600010F8013B01F8023B10F8013B01F8023B7B
:1021700010F8013B01F8023BEDD109B000BD8348E6
:102180000068807A00B9704780B50120FEF7DFFB58
:102190000220FEF7CCFB7E480021017001BD00004B
:1021A00038B5FFF7C9FF794C20680021817200F033
:1021B00029F900217748784A784D41604FF404416D
:1021C0001180016076492068C979417208E0287859
:1021D000012804D14FF4FA710420FFF709FE00BF73
:1021E0002068807A0028F2D005216E48017031BD48
:1021F00010B56D48002181720020FEF74FFB4FF4AF
:1022000000710020FEF751FB20210020FEF754FB57
:1022100020210020FEF7B2FB644C94F82C10002023
:10222000FEF7C2FB60210020FEF7A7FB0020FEF7AF
:1022300073FB0020FEF766FB00210120FEF735FB53
:10224000A0210120FEF799FB20210120FEF734FB9D
:1022500000210120FEF742FB00210220FEF725FBB2
:10226000E0210220FEF78AFB94F82C100220FEF7F2
:102270009BFB4FF440510220FEF730FB002102206F
:10228000FEF71AFB00210320FEF70FFB4FF48071CD
:102290000320FEF772FB20210320FEF70DFB002137
:1022A0000320FEF71BFB94F82C100020FEF77CFBAC
:1022B0000020FEF727FB0020FEF7A2FA3448002199
:1022C000017010BD7047704780B5304909680A78C1
:1022D00002F07F02212A08BFFE280BD1488800287F
:1022E00001BF88880028C888012803D10FF2810027
:1022F000020001D1022002BD88610020488200F066
:1023000037F8002002BD80B5204909680A7802F03C
:102310007F02212A08BFFF2815D14888002804BF62
:10232000888800280FD1C88868B90120FEF70FFB04
:102330000220FEF7FCFA0320FEF709FB14480021F7
:102340000170002002BD022002BD00290CBF002840
:10235000022070471649FEF719B81649FEF716B85D
:102360000A49154A0968C97802EBC101FEF70EB89F
:1023700028B90648006801210182002070470F48F3
:1023800070470000E8F7FF1F0202002084140020BD
:102390009C140020405C0040D4140020CC14002089
:1023A0008C020020D8140020681400203402002081
:1023B0003803002040030020B4020020D014002085
:1023C000253038582530385825303858000000005E
:1023D0000CB41CB5044604A801900A46009401AB55
:1023E00000A9074878441830FEF766FE00990022DD
:1023F0000A7000285CBF0098001B16BC5DF80CFB3F
:10240000C7F1FFFF80B5012000F0F1F80C480D4A3C
:10241000012101600021016041604FF404411180FD
:102420000160002002BD10B5054C01202060002095
:10243000606000F0DCF803202060002010BD000088
:10244000405C0040D414002010B582B000F01BF8AE
:102450006C4C4FF40041204600F080F94FF40040EE
:10246000ADF8000000A914208DF8030001208DF8BC
:102470000200204600F012F900F0CEF8FFF794FCBD
:1024800000F07CF813BD80B5FFF78CFD4FF4803071
:10249000FFF7A8FDFFF7BFFD012828D11020FFF7A7
:1024A00078FA0220FFF76AFA0020FFF7E1FD4FF407
:1024B0008060FFF7E9FD4FF48060FFF7DEFD00204C
:1024C000FFF7EAFD4FF4E0114FF48030FFF7B9FD5C
:1024D0000120FFF7BEFD3920FFF7FFFD0028FAD0ED
:1024E0000220FFF7B9FDFFF7BEFD0828FBD1FFF77B
:1024F00056FA01214FF40000FFF7DAFD012140F602
:102500000C20FFF7CCFD0620FFF7E4FD4FF48070B0
:10251000ADF8000000A918208DF8030002208DF806
:102520000200384800F0BAF801BD10B5364C002260
:102530004FF40041204600F015F9322000F034F944
:102540002046BDE810400122012100F00BB92F48C0
:102550000068000701D400207047012070472C4913
:102560000A784FF0FF30502A07D12848006800074A
:1025700001D4487870476FF00100704780B50021A2
:102580004FF0006000F065F92248002101604FF42F
:10259000A06000F019F914208DF8000001208DF8DA
:1025A000010000208DF8020001208DF8030000A832
:1025B00000F00FF913208DF8000000208DF80100C5
:1025C0008DF8020001208DF8030000A800F001F949
:1025D0001B208DF8000000208DF801008DF802000E
:1025E00001208DF8030000A800F0F3F801BD054AB2
:1025F00000284FF40041104618BF00F0AFB800F0BB
:10260000AFB8000000080140000C0140080C014078
:10261000303C0008445C004010B582B0012101202C
:10262000FFF73DFD0121094800F0A1F808480178B5
:10263000462902D14078C00705D401224FF4004159
:10264000044800F08FF8034C06E000BF00023000A1
:10265000443C0008000C014000220121204600F00B
:1026600081F848F20100ADF8000000A914208DF8AF
:10267000030001208DF80200204600F00FF808202A
:10268000ADF8000000A948208DF8030001208DF866
:102690000200204600F002F813BD00002DE9F041D1
:1026A000CC78002204F00F03E40644BF8C78234367
:1026B0000C88E5B22DB3D0F800C001250F2605FA2D
:1026C00002F7BE460EEA0408F04515D14FEA820E25
:1026D00006FA0EF82CEA080C03FA0EFE4EEA0C0C71
:1026E00091F803E0BEF1280F08BF476191F803E0BD
:1026F000BEF1480F08BF0761521C082ADFD3C0F89B
:1027000000C0FF2C28DDD0F804C0002201250F26D0
:1027100002F1080705FA07F7BE460EEA0408F0457D
:1027200015D14FEA820E06FA0EF82CEA080C03FACD
:102730000EFE4EEA0C0C91F803E0BEF1280F08BF24
:10274000476191F803E0BEF1480F08BF0761521CD2
:10275000082ADDD3C0F804C0BDE8F08101617047EC
:10276000416170470AB1016170474161704770B4BF
:102770000C4A1368C0F3034485B2860248BF23F0B5
:10278000E06306D4C60243BF032606FA04F4A3435B
:10279000AB4321B180024CBF43EA05432B43136096
:1027A00070BC70470400014041F27C51484381B045
:1027B000002102E000BF0099491C0091009981426C
:1027C000F8D301B070470000274908432749086043
:1027D00070472DE9F0410578C278012182B3234A80
:1027E000204C126825F0030302F4E0621F5990F8B0
:1027F00001C0C2F5E062120AC2F1040E0CFA0EFC2E
:1028000090F802E04FF00F0828FA02F202EA0E02F6
:1028100005F0030542EA0C02ED00FF261201AE406E
:10282000AA40B74332403A431A510078104B42094C
:1028300000F01F0001FA00F043F82200BDE8F0812B
:1028400005F01F03064A6809994042F82010BDE8C8
:10285000F081084A114008430749086070470000AA
:1028600080E100E000E400E00000FA050CED00E08B
:1028700000E100E080FFFF1F08ED00E02DE9F84FC8
:1028800040F68F7448F60F784BF68F7B654F664D98
:10289000DFF89891DFF898A121E0300404D528688A
:1028A00020402860FDF73BFF286839880BEA0000CC
:1028B000CA0448BF80F48050890448BF80F40050A7
:1028C000286048F6BF71286808407988CA0648BF62
:1028D00080F01000890648BF80F020002860686CF6
:1028E000AAF80000000460D547F6FF706864BAF8E3
:1028F000000010F00F0089F8000035D148F6BF71D4
:10290000286800F440503880286800F03000788053
:1029100028680BEA000080F400502860286808400E
:1029200080F020002860BAF80000C00628680FD4A4
:1029300008EA00002860FDF7CBFE4FF40841286844
:102940000842B1D0286820402860FDF78DFEABE733
:1029500086B2300605D5286808EA00002860FDF731
:10296000B7FE300599D5EDE755F820108EB2310449
:102970000AD555F82010214045F820102D4901EBCB
:10298000800050F8040C80473006A8D599F8000064
:1029900055F8201008EA010145F82010264901EBFE
:1029A000800050F8040C804799E7BDE8F18F2DE9CD
:1029B000F84FDFF88090DFF870B01C4F1C4CDFF848
:1029C0007CA040F68F7547F6FF7824E0CAF80080B7
:1029D000208800F00F0038705BF820108EB23104B0
:1029E00009D55BF8201029404BF8201009EB800036
:1029F00050F8040C804730060DD538785BF820106D
:102A000048F60F7211404BF820100B4901EB800083
:102A100050F8040C8047DAF8000020800004D5D478
:102A2000BDE8F18FC8140020005C0040D7140020DE
:102A3000CE1400201C03002000030020445C004052
:102A400080B50120FEF7F8FF7B20FFF746FB08B9B1
:102A500000F018F8FFF752FB3A483B490088800223
:102A600050F8040C884202D100F082F801E000F036
:102A700009F8002002BD80B5FFF7E6FC00F082F8FF
:102A8000BDE801402DE9F8434FF4FA610420FFF757
:102A9000AFF9FFF7C8FC0A20FFF786FEFFF757FDE6
:102AA0000446012C08BFFFF740FDFFF758FD05461F
:102AB000012D02DB0CB92548057200F077F8012DD5
:102AC00002DB0CB9FFF731FD00210120FFF790F97F
:102AD000FEF7E6FD1E4C1F4DDFF87C80DFF87C9092
:102AE0001F4E204F1AE0D9F8002092B241462846E6
:102AF00000F078F8D9F800102068FEF79BFD3878D0
:102B000000F0FD0040F0010038703078072805D152
:102B1000FFF70BFDFFF787FC00F02AF838788007F5
:102B2000F3D53078212808D0412802D05128DAD0B6
:102B3000E5E72068FEF778FDE1E751203070DEE739
:102B400000000000E0F7FF1FD32700A58C02002043
:102B50006003002074030020740B00206803002031
:102B6000580300205903002000400008000000081E
:102B70005FF80C00016881F3088800F10400016827
:102B80000847000010B5074979441831064C7C44C9
:102B9000163404E00A68081D511888470146A1420E
:102BA000F8D110BD000200002002000010B50A4C50
:102BB0000A49E461022020726162094820620068CB
:102BC00080474FF40070E0624FF48010A0624FF431
:102BD0000060206310BD00BF68140020DC020020EC
:102BE00034020020F0B5054617460F2085B00E468A
:102BF000074200D107B942E0244C207800283BD19D
:102C00002348244A01788DF8001041788DF801108E
:102C10008178C0788DF802108DF8030001A9042096
:102C2000135C01F8013B401C135C01F8013B401CA4
:102C3000135C01F8013B401C135C01F8013B401C94
:102C40001028EDDB211D0FF25000FDF723FF221DA0
:102C500000A900A8FEF7D8F8211D00A8FDF751FF34
:102C60000120207008E0221D31462846FDF74AFF6A
:102C7000103F10351036BFB23800F4D102E0012009
:102C800005B0F0BD002005B0F0BD000074130020B9
:102C9000E0F7FF1FE4F7FF1F4920616D206B6579A6
:102CA0002C207761776177611201000200000040FB
:102CB00083044837000101020301000004030904F2
:102CC0002603530054004D006900630072006F003A
:102CD00065006C0065006300740072006F006E0098
:102CE00069006300730000001A03530054004D0094
:102CF000330032002000530054004C0069006E0085
:102D00006B00000010035300540020004C006900C9
:102D10006E006B00FFF74BBE00F020B80C4881B08E
:102D200001884FF6FB72114001800A480168491C76
:102D30000160C9070848026822F0F0020092009979
:102D40004CBF41F0400141F0B001016001B070475B
:102D5000102C0140C01400200408014038B50D4873
:102D60000D4C01680D4D618061882A88114049052C
:102D700005D54FF6FF3101600948406880476088FB
:102D800029880840000403D5FFF778FD0120207052
:102D900031BD00BF445C0040CC140020D41400209E
:102DA00034020020CBE7FFFF901100004C0300200D
:102DB00000000000BBDAFFFF4C03000044010000EC
:102DC000000000200000000000F00BF8002801D0F7
:102DD000FFF7D8FE0020C046C046FFF731FE00F0E6
:102DE00002F80120704700F001B80000074638469D
:102DF00000F002F8FBE7000080B5C046C046024A7A
:102E000011001820ABBEFBE72600020001488047F6
:102E100001480047492400081D2E0008C046C0464E
:102E2000C046C046FFF7D0FFFEF735BFFEF742BFF2
:102E3000FFF7FEBFFFF7FEBFFFF7FEBFFFF7FEBFC6
:102E4000FFF7FEBFFFF7FEBFFFF7FEBFFFF7FEBFB6
:102E5000FFF7FEBFFFF7FEBFFFF7FEBFFFF7FEBFA6
:102E6000FFF7FEBFFFF7FEBFFFF7FEBFFFF7FEBF96
:102E7000FFF7FEBFFFF7FEBFFFF7FEBFFFF7FEBF86
:102E8000FFF7FEBFFFF7FEBFFFF7FEBFFFF7FEBF76
:102E9000FFF7FEBFFFF7FEBFFFF7FEBFFFF7FEBF66
:102EA000FFF738BFFFF738BFFFF7FEBFFFF7FEBFE2
:102EB000FFF7FEBFFFF7FEBFFFF7FEBFFFF7FEBF46
:102EC000FFF72CBFFFF7FEBFFFF7FEBFFFF7FEBF08
:102ED000FFF7FEBFFFF7FEBFFFF7FEBFFFF7FEBF26
:102EE000FFF7FEBFFFF7FEBFFFF7FEBFFFF7FEBF16
:102EF000FFF7FEBFFFF7FEBFFFF7FEBFFFF7FEBF06
:102F0000637C777BF26B6FC53001672BFED7AB76A6
:102F1000CA82C97DFA5947F0ADD4A2AF9CA472C051
:102F2000B7FD9326363FF7CC34A5E5F171D83115BE
:102F300004C723C31896059A071280E2EB27B275DF
:102F400009832C1A1B6E5AA0523BD6B329E32F8457
:102F500053D100ED20FCB15B6ACBBE394A4C58CF4F
:102F6000D0EFAAFB434D338545F9027F503C9FA823
:102F700051A3408F929D38F5BCB6DA2110FFF3D2F1
:102F8000CD0C13EC5F974417C4A77E3D645D1973A5
:102F900060814FDC222A908846EEB814DE5E0BDB9F
:102FA000E0323A0A4906245CC2D3AC629195E479D6
:102FB000E7C8376D8DD54EA96C56F4EA657AAE0830
:102FC000BA78252E1CA6B4C6E8DD741F4BBD8B8ACB
:102FD000703EB5664803F60E613557B986C11D9E31
:102FE000E1F8981169D98E949B1E87E9CE5528DFA8
:102FF0008CA1890DBFE6426841992D0FB054BB16D4
:1030000052096AD53036A538BF40A39E81F3D7FB5D
:103010007CE339829B2FFF87348E4344C4DEE9CBA7
:10302000547B9432A6C2233DEE4C950B42FAC34E1C
:10303000082EA16628D924B2765BA2496D8BD125D2
:1030400072F8F66486689816D4A45CCC5D65B69276
:103050006C704850FDEDB9DA5E154657A78D9D841A
:1030600090D8AB008CBCD30AF7E45805B8B345063A
:10307000D02C1E8FCA3F0F02C1AFBD0301138A6B54
:103080003A9111414F67DCEA97F2CFCEF0B4E67384
:1030900096AC7422E7AD3585E2F937E81C75DF6E32
:1030A00047F11A711D29C5896FB7620EAA18BE1B98
:1030B000FC563E4BC6D279209ADBC0FE78CD5AF43E
:1030C0001FDDA8338807C731B11210592780EC5F84
:1030D00060517FA919B54A0D2DE57A9F93C99CEFE0
:1030E000A0E03B4DAE2AF5B0C8EBBB3C83539961E1
:1030F000172B047EBA77D626E169146355210C7D1F
:10310000320330003000300030003000300030003A
:10311000300030003000300030003000300030002F
:10312000300030003000300030003000300030001F
:1031300031000000A1210008F1210008C52200088B
:10314000C7220008C9220008072300084B230008F3
:10315000552300085B2300086123000800000000DD
:103160004000000000000001000000020000000418
:1031700000000008000000100000002000000040D7
:10318000000000800000001B00000036090227003C
:1031900001010080320904000003FFFFFF0407055E
:1031A000810240000007050202400000070583027B
:1031B00040000000BC2C000804000000C02C0008E7
:1031C00026000000E82C00081A0000000002002081
:1031D00032000000042D0008100000006D080008F7
:1031E0007F2100086D0800086D0800086D080008C0
:1031F0006D0800086D0800086D0800086D080008DB
:10320000292E00086D0800086D0800086D080008E8
:103210006D0800086D0800086D0800086D080008BA
:103220002D2E00086D0800086D0800086D080008C4
:103230006D0800086D080008A82C000812000000A6
:0C3240008C0200202700000004010000A8
:0400000508002E1DA4
:00000001FF
